:020000022000DC
:1060000000000120756302005D6302005F6302000F
:106010006163020063630200656302000000000028
:1060200000000000000000000000000067630200A4
:1060300069630200000000006B6302006D630200F0
:10604000C58402006F630200618902006F63020071
:106050006F6302006F630200E98702008589020016
:106060006F6302006F6302006F6302006F630200E0
:106070006F6302006F6302006F6302006F630200D0
:106080006F6302001D7702006F6302006F630200FE
:106090006F6302006F630200E9A702006F630200F2
:1060A0006F6302006F6302006F6302006F630200A0
:1060B0006F6302006F630200000000000000000038
:1060C0006F6302006F6302006F6302006F63020080
:1060D0006F6302006F6302006F6302000000000044
:1060E00000000000000000000000000000000000B0
:1060F00000000000000000000000000000000000A0
:10610000000000000000000000000000000000008F
:10611000000000000000000000000000000000007F
:10612000000000000000000000000000000000006F
:10613000000000000000000000000000000000005F
:10614000000000000000000000000000000000004F
:10615000000000000000000000000000000000003F
:10616000000000000000000000000000000000002F
:10617000000000000000000000000000000000001F
:10618000000000000000000000000000000000000F
:1061900000000000000000000000000000000000FF
:1061A00000000000000000000000000000000000EF
:1061B00000000000000000000000000000000000DF
:1061C00000000000000000000000000000000000CF
:1061D00000000000000000000000000000000000BF
:1061E00000000000000000000000000000000000AF
:1061F000000000000000000000000000000000009F
:10620000354936480A1A02D0072291438D4634494F
:1062100034480A1A06D00722914381F309880222E2
:1062200082F3148830483149314A00F044F831484B
:106230003149324A00F03FF831483249324A00F0E1
:106240003AF832483249334A00F035F83248334997
:10625000334A00F030F833483349344A00F02BF821
:1062600033483449344A00F026F83448344900228F
:1062700000F02CF833483449002200F027F8334866
:106280003349091A082902DB002202604160314AC1
:1062900090471F481F49884205D00268043003B464
:1062A000904703BCF7E700208646EC46002000211B
:1062B000294A9047FEE7884207D0521A05D0037852
:1062C00001300B700131013AF9D17047884202D098
:1062D00002700130FAE770470000012000E0002062
:1062E0000000012000000120FCBF0200F02200207D
:1062F0004C230020D0630200D0630200A6AC020051
:10630000FCBF0200F0220020F02200209CAD020021
:106310009CAD02009CAD02009CAD02009CAD020051
:106320009CAD02009CAD02009CAD0200FABF0200D1
:1063300058C002004C2300204C2300204C23002096
:10634000002F0020002F0020002F0020002F002011
:10635000004F00209D63020039900200FEE7FEE737
:10636000FEE7FEE7FEE7FEE7FEE7FEE7FEE7FEE705
:1063700000F002B8FFF7FCBF0F484FF00701884359
:1063800085460E4880470E48016841F4700101605F
:10639000BFF34F8FBFF36F8FFFF732BF09480A4932
:1063A0000A4A884207D0521A05D0037801300B7090
:1063B0000131013AF9D170470000012071800200DB
:1063C00088ED00E09CAD0200F0220020F0220020C9
:1063D0007047000007B5044B0093044A402300F0C7
:1063E00032F803B05DF804FBF16302004D23002096
:1063F0002DE9F84388461446B2B10F4B0F4E0325E2
:10640000002743F00109224608EB0701002003F0B2
:10641000CDF90744241A48B933782BB14FF47A40A8
:10642000C847013D02D13570BDE8F88301233370C0
:10643000002CE8D1F8E700BFA0AD02004C230020FB
:10644000704703F0E3B9F0B595B01D46164608460F
:106450000C4601F009FD1A9B0D93CDE90865002556
:106460002B46082205A920460A958DF82C500C953C
:1064700001F016FD079B0293069B03939DF81430D1
:106480008DF8115003F00302012A1DD1BDF814202C
:10649000059DC3F3C203C2F383168DF81030B2001A
:1064A00008230EA9204601F0FBFCC5F3952508AB97
:1064B0000093324602AB0EA9284600F079FB204635
:1064C00001F0D6FC15B0F0BD022AF8D1BDF8165087
:1064D000C3F3C203C5F389158DF810300827082DC2
:1064E0002E4628BF08263B4632460EA9204601F01C
:1064F000D7FCAD1B08AB02AA31460EA8374400F00A
:10650000BBFB002DEBD1DAE708B5FFF79AFF044893
:10651000042100F0B7FA034B01225A7108BD00BFF5
:106520008CAD0200F0220020037813F0040216D094
:1065300003F00303012B03D0022B09D00120704785
:106540000A6800880232C0F3831002440A60F5E74B
:106550000B684288023303EB92130B60EEE71046A0
:10656000704700002DE9F04FDFF830A187B00F46EB
:1065700000230446861C0DF1070015468DF80730F0
:1065800000F05CFFDAF800103960DAE901321344F8
:1065900001335B1A0AF21C470AF583690AF21448B0
:1065A000B3421CD30020002D73D004F00F039B01D5
:1065B00043F0050363F30F00DAF80020DAF808303F
:1065C0001340033332444AF823009DF80700CAF809
:1065D000002000F057FF012007B0BDE8F08F012137
:1065E000384601F078F9484601F08DF9404601F04F
:1065F0008AF9DAF80400DAF808B0029000EA0B0031
:1066000003300AEB800002A9FFF78EFF029B50BB0C
:106610000BEA03020AEB820203F1020CD268039236
:10662000013303EA0B0B0AEB8B0B02F00302012A86
:10663000DBF80C10CDF808C023D0022A16D0834610
:10664000404601F063F910B1029BCAF80430594684
:10665000384601F040F9DAE901231344DAF8002062
:1066600001339B1A9CE70BEA0300C9E7BDF80E3023
:10667000C3F3891303334FEA114B0CEB93030293DB
:10668000DEE7BDF80C30C3F383134FEA114B6344CC
:10669000F5E7A40544F006008EE700BF6024002063
:1066A0000B4B0C48FF2210B59A600022C3F8182447
:1066B000C3E90022C3F8142483F8202401F08DFBE1
:1066C000044610B9044801F035FC204610BD00BF57
:1066D00060240020F8AC0200DCAD020030B50A4CAA
:1066E00071B10A4A0A49121BD20800239A4201D109
:1066F000002030BD31F82350854202D00133F5E748
:10670000034654F83300F4E70CAD02008CAD0200F0
:10671000F0220020094B013903EBC000032909D8FE
:10672000DFE801F00A020406042070470079704790
:106730004079704700207047022070470CAD02007E
:10674000034BD3E90030C31A58425841704700BF89
:10675000602400202DE9F04387B0FFF7F1FF0646E3
:10676000002840F0FE80804CC4F81804BFF34F8F1F
:106770006368A56802932B40033304EB830002A9EE
:10678000FFF7D2FE029B18B1D4F81824002A62D079
:1067900005EA0302991C013304EB82022B4004EB4F
:1067A0008303D268DB68049302F00303022B039295
:1067B000029163D1BDF80E306C48C3F38917502F96
:1067C000B84628BF4FF0500808F1080168F38F134E
:1067D000C1F30901ADF80E3001F017FB06460028A1
:1067E00000F0AA8001F040FB0023082203A93046F4
:1067F00001F04CFB029925EA01020132B8EB820F4D
:106800004FEA820333D95FFA88F863B32940DDB2D7
:10681000A8EB050803315FFA88F9A846544D04EB4C
:10682000810108234246304601F030FB3DB108F1BA
:106830000803DBB24A462946304601F027FB029B9B
:10684000033703EB97070297D4F81834002B4BD18A
:10685000D4F810545BE022689A428CD862603046CB
:1068600007B0BDE8F08342491D469946D9E7294063
:1068700003310823424604EB8101DDE7012B5BD1A4
:10688000BDF80C303948C3F38311062928BF06210F
:1068900061F38913023101F00F018900ADF80C306A
:1068A00001F0B3FA0646002846D001F0DDFA0023D5
:1068B000082203A9304601F0E9FA0027BDF80C20B0
:1068C000C2F38312BB00974203F10803BCD20299C2
:1068D0004A1C29400331029204EB81010422304614
:1068E00001F0D4FA0137E9E7304601F0C1FAFFF7C9
:1068F00027FF80F00100C6B2B1E7EB685B7923B1F6
:106900002B6831461B6828469847EB681D68002DA8
:10691000F3D1304601F0ACFA0DF107008DF80750C5
:1069200000F08CFDD4F818340BB9029B63609DF81D
:10693000070000F0A7FDDAE7D4F8104454B90D4B76
:106940000D480E49C01AC008000440F0020000F0D3
:1069500063F8CCE7236820469B689847E3681C6887
:10696000ECE700267BE700BF60240020F8AC0200C3
:106970006C2400200CAD02003CAD0200C4AD02004E
:106980002DE9F74F224E04460F46924601A90122F7
:106990001846D6F808909B46FFF7E4FD20B3019D0A
:1069A0004FF00008AA1CD84508EB020126D119486F
:1069B000002100F061FF80F31000000440EA144061
:1069C000E4006B1C04F0380403EA090305EA090536
:1069D00044F0010406EB8303033544EA881444EAD7
:1069E0008724D86046F8254096F820341BB1FFF77D
:1069F000B1FE0028FBD103B0BDE8F08F09EA010128
:106A000006EB81015AF82830CB6008F10108CAE78B
:106A1000602400207C28002000231A46FFF7B0BF26
:106A200007B50123019201AAFFF7AAFF03B05DF8A1
:106A300004FB07B5CDE9002302236A46FFF7A0FF58
:106A400003B05DF804FB1FB5CDE90023069B02935C
:106A5000079B03936A460423FFF792FF05B05DF896
:106A600004FB7FB5CDE90123089B0393099B0493A5
:106A70000A9B059301AA0523FFF782FF07B05DF883
:106A800004FB000030B50F4CD4F81024034600205E
:106A9000114631B9D96808714AB9C4F810340A608E
:106AA00030BDC9680D79854206D00968F1E7D26822
:106AB00014680C601360F3E701300A28E8D14FF046
:106AC000FF30EDE76024002038B5084B0125D3F8EE
:106AD000104483F8205404B938BDE3685D7123681D
:106AE00020465B689847E3681C68F4E76024002050
:106AF00030B5C38885B004460D4633B1144A0092C0
:106B00001449154A284600F064FF217A05291DD052
:106B1000637A4BB1A088FFF7FDFD104B104953F885
:106B20002020284600F055FF227A0E4BA08853F80B
:106B3000222003920021FFF7D1FD039A0A49034660
:106B4000284605B0BDE8304000F043BF05B030BD79
:106B500008AE0200F0AD0200E8AD020074AE020023
:106B60000DAE020098AE020010AE020007B503465B
:106B70000846197A052911D05B7A2BB1094A0A49CE
:106B8000019000F026FF01980849019000F021FFD4
:106B9000019803B05DF804EB00F010BF002AF8D0B4
:106BA000F2E700BF08AE02000DAE020005AE020023
:106BB0002DE9F04385B01F460C9D002395F80C90FD
:106BC0002B7306460C46904629463846FFF790FF41
:106BD000B8F1060F09D8DFE808F00412181F2833AF
:106BE00040003146284600F0F4FE0022294638468F
:106BF000FFF7BCFF85F80C9005B0BDE8F083226874
:106C00003146284600F0E5FEEFE7D4E9002331469F
:106C1000284600F0DEFEE8E7A36800933146D4E999
:106C20000023284600F0D5FEDFE7E3680193A36860
:106C300000933146D4E90023284600F0CAFED4E789
:106C400023690293E3680193A36800933146D4E972
:106C50000023284600F0BDFEC7E76369039323695C
:106C60000293E3680193A36800933146D4E90023BB
:106C7000284600F0AEFEB8E708292DE9F74F804618
:106C80000E4617461C463CD8002593F80C901D7301
:106C900019461046FFF72CFFDFF888A0DFF888B010
:106CA000AE4231D918F805205946204600F091FE31
:106CB0000135082DF4D11949194DDFF870A020468F
:106CC00000F087FE4FF0000B5E4522D918F80B202C
:106CD0007E2A05D81046019203F032FF019A00B9CE
:106CE0002E225146204600F074FE0BF1010BBBF141
:106CF000080FE9D1012221463846FFF737FF84F813
:106D00000C9003B0BDE8F08F5146204600F061FEC4
:106D1000CEE72946204600F05CFEE6E724AE0200FE
:106D200022AE020020AE02001AAE020026AE020021
:106D3000C30710B507D4F023054A4008145C23406C
:106D40001943115410BD0901C9B20F23F4E700BF64
:106D50005029002030B5094B1C78094B19680023D5
:106D60009C4202DC0022104630BD11F833508542AF
:106D700001EBC302F7D00133F2E700BF1C2900206A
:106D80006029002013B504460191FFF7E3FF38B1F5
:106D900043682BB10199204602B0BDE81040184766
:106DA00002B010BD034B044819680022490800F0E6
:106DB00058BA00BF202900202829002010B5C0B2F1
:106DC000FFF7C8FF0446007801F004FD63785A1EFF
:106DD00053425341834208D1044BD3E90023134368
:106DE00003D1BDE81040FFF7DDBF10BD48290020EA
:106DF00037B54308374AD35CC2074CBF1B0903F0C1
:106E00000F0304460D46042B25D8DFE803F00326C4
:106E10002F3C4000F9B10121FFF78AFF00230DF15B
:106E200007008DF8073000F009FB0120A4F12003D2
:106E3000C4F12001284A20FA01F100FA03F30B43C0
:106E4000A040D2E9004120430B43C2E900039DF872
:106E5000070000F017FB03B030BD002918BF022166
:106E6000204603B0BDE83040FFF762BF49B10321BF
:106E7000FFF75EFF0121204603B0BDE83040FFF779
:106E800081BF0121ECE70029E5D10421E8E709B140
:106E90000321E5E7FFF74CFF29462046FFF772FF85
:106EA0000DF107008DF8075000F0C8FA0120A4F199
:106EB0002003C4F12001084A20FA01F100FA03F38B
:106EC0000B43A040D2E9004124EA000021EA030379
:106ED000BBE700BF50290020482900202DE9F041E0
:106EE000124E134F00243378A34208DC114BD3E930
:106EF0000023134318D0BDE8F041FFF753BF3D68AE
:106F000005EBC40815F8340001F064FC98F8013072
:106F10005A1E53425341181A4142414115F8340058
:106F2000FFF766FF0134DEE7BDE8F0811C29002091
:106F30006029002048290020092AF7B505460C469B
:106F400016463ED901F05CFBE8B11F4B1F481D609F
:106F50001F4B204F1C70204B002110221E6003F09D
:106F60001DFE1E4B00200021C3E90001013CE4B2DC
:106F70000326FF2C0DD11A4A1A48002103B0BDE8A0
:106F8000F04000F063B901F003FB0028DDD003B04E
:106F9000F0BD9DF8063015F834008DF8046005EB5F
:106FA000C40223F007038DF8063001A993788DF809
:106FB00005303A4601F02EFB013CE4B20028D8D05F
:106FC000E5E70720E3E700BF602900205029002003
:106FD0001C290020BD6D0200202900204829002026
:106FE000DD6E0200B8AE020070B5084D084E0024F8
:106FF0002B789C4201D3002070BD3368012113F827
:10700000340001F07FFB0134F2E700BF1C290020AF
:107010006029002073B5114D114E00242B789C423D
:1070200015D300230DF107008DF8073000F006FAA4
:107030000C4B00210020C3E900019DF8070000F07F
:1070400021FA094802B0BDE8704000F022B9336867
:1070500013F8340001F09CFB0134DFE71C29002009
:107060006029002048290020282900201FB5002180
:10707000039001AA44F20100CDE9011100F004F8E7
:1070800005B05DF804FB000038B572B6FFF71CFDD3
:10709000FFF760FB0028FBD1104B114C114D12493A
:1070A000E41AE408240444F00100FFF7B5FCD5F825
:1070B000F030DB0700D500BE0C4944F00200FFF7BA
:1070C000ABFCBFF34F8FEA68094B02F4E062134355
:1070D000EB60BFF34F8F00BFFDE700BF0CAD0200B8
:1070E0003CAD020000ED00E0BCAE0200C8AE020004
:1070F0000400FA0510B5D0E90243D1E90202A0422A
:1071000072EB03032CBF0120002010BD08B50A4814
:1071100000F0EFFA094AD2E90031C018084BD3E970
:10712000002341F10001904271EB030303D210F1FF
:10713000807041F1000108BDF8220020682900207C
:10714000E029002037B505460C460A4801A900F0A1
:1071500002FB60B10570446001A9064800F025FB00
:1071600018B1054800F0CAFA002003B030BD042071
:10717000FBE700BFCC290020F822002038B5184BCF
:107180001B78044613B90025284638BD0028FAD0DC
:10719000037F03F0FF05002BF5D0FFF7B7FFD4E91D
:1071A0000223904271EB030314D3236903B92377BD
:1071B000D4E90530984721690029E4D0237F03F002
:1071C000FF05002BDFD0D4E902325B1842F1000248
:1071D000C4E902320348214600F0CBFED4E700BFE9
:1071E00070290020E4AE020013B5114B1149186854
:1071F000019008231048582200F09AFA044698B9E2
:107200000E4A0F4801A900F061F9044660B90C4824
:10721000012100F051FA01230A4A0948194600F0F9
:10722000B3F9094B01221A70204602B010BD00BF0D
:10723000E0AE020074290020CC290020AD720200CB
:10724000F8220020FFFF7F00702900203AB1036878
:107250005A614A1E5142514119610020704707206E
:10726000704738B5037F04460D4683B98261FFF746
:107270004DFF2369281841F10001C4E9020103B15F
:10728000256121460020BDE83840FFF75BBF0020A4
:1072900038BD0023014603770120FFF753BF0000EC
:1072A000014800F026BA00BFF82200202DE9F3477C
:1072B000064600F009FA40B1584AD2E9003113F10C
:1072C000807341F10001C2E900310021304600F035
:1072D0000AFA38B1524C236823B12068FFF74EFFF9
:1072E000002323600121304600F0FDF920B1FFF7B3
:1072F0000DFF4C4BC3E900014B48494D4B4C4C4FE3
:1073000001A900F062FA002842D1DFF82081444C44
:10731000DFF82491404600F042FE2368002872D036
:107320007BB12368D0E90252D3E902138D4272EB9C
:1073300003032AD223681B7F1BB12168404600F05B
:1073400018FE404600F025FED0E9027A0546FFF718
:10735000DDFE381A6AEB010A01287AF1000345DBE9
:10736000B0F5350F40D3FFF79BFF324A02444FF48C
:1073700096030021484600F027F900283ED12368F3
:1073800013B9304600F0F8F8256002B0BDE8F08788
:107390000378012B1DD0022B09D14FF000082046A5
:1073A00000F0F7FD002836D080F81C80F7E73BB9E5
:1073B00041680B7F23B901230B77204600F0D9FDEC
:1073C00001A9194800F02CFA01A9174800F0FDF9AD
:1073D00099E741682B68994202D100232B60EFE7BF
:1073E000204600F0DFFDEBE7AA68C0E70021484631
:1073F00000F06FF92846FFF7C1FE01E00D28F9D033
:107400000023236086E7002BBFD1304602B0BDE8E1
:10741000F04700F0B5B801233B70D1E768290020A0
:10742000E8290020E0290020CC290020E4AE020059
:1074300070290020FFFFB400F822002070B5EFF3A0
:10744000108672B60C4A946801239CB993600B4B6A
:107450000B4DD3F8801029401160C3F88050D3F849
:10746000841051604FF0FF32C3F88420047006B9D5
:1074700062B670BD0370FAE7EC29002000E100E07D
:10748000FC06FFBD084B9A6810B55AB150B9EFF32E
:10749000108172B6054A1C6814605C68546098607C
:1074A00001B962B610BD00BFEC29002000E100E088
:1074B000435882B03BB10023435043580193019B92
:1074C000012002B070471846FBE70000F8B5224BD8
:1074D0004579224E43F82520214A224B9B1A06EB80
:1074E000C502DB0812791B04EF0032B143F0020041
:1074F0001D49FFF791FA0820F8BD02680C88C2F810
:10750000084590F9044002798978002CADBF04F158
:10751000604CDFF85CC002F00F0E0CF5614C4FEAD6
:107520004111C9B2B4BF0CF80E108CF800136409F5
:107530000121DFF840C002F01F0201FA02F24CF80C
:107540002420F21946F83500117143F00300074971
:10755000FFF762FA0020CFE7002A0020F829002078
:107560000CAD02004CAD0200F0AE020012AF020002
:1075700014ED00E000E100E0036801221A607047AA
:10758000036801225A60704773B501F15005AD00E0
:107590000068ADB24FF480348C400026C0F8084338
:1075A000C0F84843465101F5A8714559019522F0AC
:1075B0007F42019D40F82120C0F844430BB1C0F840
:1075C000044302B070BD00002DE9F74F0D4622F0D4
:1075D0007F4402684FF4803705F150068F408046A3
:1075E000B60002EB8500C2F84873B6B2C2F8087361
:1075F000D2F8041599464FF0000BD0F84035C0F88A
:10760000401542F806B05B1A9259009223F07F436E
:10761000012B009A4FEA850A0CD1264B4FF480606B
:1076200043F001039847D8F8003043F806B09B595F
:107630000193019BD8F80010D1F80465C1F8447398
:10764000A31B23F07F43012B1CD11A4B05F5A87512
:10765000013443F0010341F825404FF4806098471E
:10766000D8F80030D3F804359E4209D1D8F800305C
:107670000020C3F84473C3F8047303B0BDE8F08F6F
:107680000D20FAE78A44C9F1FF13CAF84045D1F842
:107690000405221A013A22F07F4203F57F43934208
:1076A000EED3002AE2D10134CAF84045D1F80435BE
:1076B0009842DAE730AF020003680222C3F844239D
:1076C00009B1C3F80423704700684FF48271FFF7D3
:1076D000EFBE4FF4803303FA01F10368C3F8481397
:1076E000C3F80813704750318900006889B2FFF76A
:1076F000DFBE0368D3F804057047000090F904303A
:1077000001215A0903F01F0301FA03F34032024931
:1077100041F82230704700BF00E100E0024B034A0D
:107720001B681068184700BF002A0020F8290020B5
:1077300010B561B1B2FBF3F403FB1424A4B244B955
:10774000C0E9001484608281C381204610BD0E20F0
:10775000FCE70920FAE737B550E8013F9DB2C4893C
:1077600025448489A54228BF2D1B0489A54202BF58
:10777000BFF32F8F002207E0C5EA030540E801545C
:10778000002CE9D14FF001028DF803200193019AFA
:107790000A609DF8031001F0FF0321B1006810FAA0
:1077A00082F003B030BD1846FBE70A884B889A4246
:1077B00009D150E8012FC2EA024240E80123002B20
:1077C000F7D1012070470020704737B550E8023FDD
:1077D0001FFAA3F5C488A54202BFBFF32F8F002272
:1077E0000DE0C48925448489A54228BF2D1BC3EA26
:1077F000054540E80254002CE8D14FF001028DF815
:1078000003200193019A0A609DF8031001F0FF0321
:1078100021B1006800EB124003B030BD1846FBE711
:107820000A884B889A4209D150E8022FC2EA2242C4
:1078300040E80223002BF7D1012070470020704759
:1078400001F01F024B090121914000EB830000F081
:107850001EB801F01F0301229A404B0900EB830080
:10786000D14300F02CB84B0901F01F0150F8230060
:10787000C84000F00100704710B5034653E8000F00
:107880000A4643E8002494F0000FF7D110BD10B56C
:10789000034653E8002F42EA010043E8000494F055
:1078A000000FF6D110BD10B5034653E8000F00EAF3
:1078B000010243E8002494F0000FF6D110BD10B58A
:1078C000034653E8002F02EA010043E8000494F065
:1078D000000FF6D110BD10B5034653E8002F02EBA0
:1078E000010043E8000494F0000FF6D110BD10B57C
:1078F000034653E8002FA2EB010043E8000494F094
:10790000000FF6D110BD0121FFF7C1BF0021FFF725
:10791000CABF10B590B1D0E9012301689B1ADBB250
:107920000A60013BDBB2FF2B026802D1002010711C
:1079300010BD11684C1C14600B70F2E70E20F7E7C5
:1079400037B5054600240DF107008DF80740FFF715
:1079500075FD2A686B68116899420ED9481E10603F
:1079600011F8013CEC68298A01FB0344AB681179EA
:107970001B1ADBB2994238BF13719DF80700FFF75D
:1079800081FD204603B030BD37B5054600230DF11B
:1079900007000C468DF80730FFF750FD2A68136882
:1079A000591C1160E968641A298AB4FBF1F41C704F
:1079B0009DF80700FFF766FD03B030BD826810B583
:1079C00004462AB143690168006998470023A3600F
:1079D00010BD0EB403B5039921B104AB01AA019304
:1079E00000F06EF802B05DF804EB03B070478268F7
:1079F00030B40468551C8560A154D0E901329A4224
:107A000002D330BCFFF7DABF30BC70472DE9F84F26
:107A10009846DDE90A43154682460F460A464FF06E
:107A20000109AA420FD2C14538BFC14613F0010B6C
:107A300001D16CB900240126B8F1010F1BD908F15E
:107A4000FF386E43F8E709F10109B2FBF5F2E8E708
:107A50009B070ED5B8F1000F0CBF30262026A1459C
:107A6000E9D2013C31465046FFF7C1FF002CF6D168
:107A7000E0E72026F3E7B7FBF6F39D42E1D9DFF814
:107A80003C80B7FBF6F3504618F8031006FB13775B
:107A9000FFF7ADFF3346AB42B6FBF5F6F1D2BBF1D3
:107AA000000F02D00CB1A14501D3BDE8F88F202111
:107AB0005046013CFFF79BFFF4E700BF36AF0200E2
:107AC0002DE9F74F054617468846002900F03E810C
:107AD00018F8011B49B92B7B002B00F03781284691
:107AE00003B0BDE8F04FFFF769BF252940F0B7802C
:107AF000002698F800302D2B424608F1010823D0CB
:107B0000302B24D02B2B25D000242A2B02F101016D
:107B100023D13B681A1D1B683A601C440A4613783F
:107B20002E2B26D101324FF0000A104610F8011B0F
:107B3000A1F1300CBCF1090F1DD80A2303FB0A1375
:107B4000A3F1300A0246F0E746F00106D1E746F01D
:107B50000206CEE746F00406CBE711F8013CA3F19C
:107B600030000928DBD80A2202FB0434303C0A46E4
:107B7000CBE74FF0000A12F8011B01F0FB00682868
:107B80009046F8D0782909D86F290CD8632962D09B
:107B900022D8252963D0582900F0888098F8003031
:107BA000002B95D197E770390829F7D801A353F82E
:107BB00021F000BF277D02009D7B02009D7B02001B
:107BC000BD7C02009D7B02009B7C02009D7B02002D
:107BD0009D7B0200AD7C0200642901D06929DDD1C2
:107BE0003A68D2F80090111D89EAE9723960A2EB77
:107BF000E9724FF0010B092A35DCD34538BFD34673
:107C00002CB1B9F1000F01DB720700D5013CB307BD
:107C100002D5BAF1000F03D0F00701D44CBB002409
:107C2000B9F1000F2DDAC9F100092D212846FFF71F
:107C3000DEFE06F00302022A04D1BAF1000F01D1E0
:107C40001CBB0024CDE9004653460A22494628467B
:107C5000FFF7DCFEA2E73B681A1D19783A60284658
:107C6000FFF7C5FE9AE70A230BF1010BB2FBF3F213
:107C7000C1E7A345D4D220212846013CFFF7B7FE37
:107C8000CCE77107D5D52B21D0E7A345DAD2302137
:107C90002846013CFFF7ABFED2E73968CDE9004644
:107CA0000A1D3A6053460A220968D0E739680A1D5E
:107CB0003A60CDE9004653461022F5E73B681A1DAD
:107CC0003A6016F00106D3F8009024D1B9F1000F04
:107CD00003D0484602F0B7FF0646B4421DD809F16A
:107CE000FF3919F8011F00293FF458AF2846FFF764
:107CF0007EFEF6E728460136FFF779FE19F80610F2
:107D00000029F7D1A642BFF449AF20212846013C03
:107D1000FFF76DFEF6E70026F0E720212846013C3C
:107D2000FFF765FED9E73B681A1D3A603021284607
:107D30001C68FFF75CFE78212846FFF758FE0022FA
:107D40000823CDE900322146102280E703B0BDE8C8
:107D5000F08F00BF2DE9F84FB0F806A04579D2F8B2
:107D600000B09DF828900AFB05F5043D88460BEB12
:107D70000301A94203F1040488BFA5EB030BB4FB84
:107D8000FAF607460AFB1644C2F800B04EB9AAEB51
:107D900004055D4528BF5D46BBF1000F04D1BDE879
:107DA000F88F3F68013EF1E7043408EB06003C44DD
:107DB0002A46B9F1000F0DD02146ABEB050B02F0BE
:107DC000C4FEDA452E443F6855464FF0000428BFF4
:107DD0005D46E1E701462046EFE7FFF79ABDF8B5BB
:107DE00046790146721E0546002393422D6803D34F
:107DF0000024A64202D8F8BD0133F6E70F682846F2
:107E0000FFF7C2FD01343946F3E72DE9F843068A4E
:107E1000CD1C0746FFF794FD043E35440446B5FBF0
:107E2000F6F5F0B14FF48073EDB28380C680013D6A
:107E3000076081464FF00008A84512D23846FFF788
:107E40007FFD064648B163790133637108F101088B
:107E5000C9F8000007608146EEE72046FFF7BFFF44
:107E600034462046BDE8F88301210430FFF733BDD6
:107E700010B5012104460430FFF739FDC0B220B926
:107E80002046BDE81040FFF7AABF10BD1FB5039202
:107E90000022009203AAFFF75DFF05B05DF804FB26
:107EA0001FB503920122009203AAFFF753FF05B00A
:107EB0005DF804FB41DF7047064B10B500241C70D1
:107EC000054B1C60BFF35F8F0449054800F03BF889
:107ED000204610BD0C2A0020102A002050AF0200BE
:107EE000042A002007B500230DF107008DF80730A4
:107EF000FFF7A4FAF1EE103A23F09F03E1EE103AF7
:107F0000BFF35F8F0A4B4022C3F884219DF807001E
:107F1000FFF7B8FA02F04EFC20B103B05DF804EBB5
:107F2000FFF7C8BF20BF40BF20BF03B05DF804FB10
:107F300000E100E0836800225A60C3E904229A60ED
:107F4000DA601A6070470B684A684360934208BF62
:107F50000023016008BF43607047436843B1026873
:107F6000916852680B449342436004BF002343600E
:107F7000704770B5446806460D46206818B1B3686E
:107F80002946984718B923682B60256070BD24687E
:107F9000F3E74368186808B102681A6070474368DD
:107FA000186870474368186800B97047884203D161
:107FB00002681A600120704703460068F4E7000079
:107FC00010B50D49A1F59472914201D800200FE03F
:107FD0008C1AE30F03EBE4035B1002EBC30452F8CB
:107FE0003330834205D802D204F10802ECE760681E
:107FF00010BD2146E8E700BF5CB4020008B5FFF7FA
:10800000DFFF024B002808BF184608BD1FB302005F
:108010004FF0704393F8E02F062A10D1D3F8E42FE5
:1080200012070CD1D3F8E80F00F0F003302B08D082
:1080300000F0E000A0F14003584258417047002092
:108040007047012070474FF0704393F8E02F062AE5
:108050000CD1D3F8E42F120708D1D3F8E80F00F0C1
:10806000F000A0F13003584258417047002070479B
:1080700008B5FFF7CDFF40B14FF08053884AD3F8E1
:108080002433C3F30423C2F84035FFF7DCFF10B1FB
:10809000844B854A5A67FFF7BBFF48B14FF08053C6
:1080A0004FF08042D3F84432C3F34233C2F83C3538
:1080B000FFF7C9FF30B17D4AD2F8FC3023F080735E
:1080C000C2F8FC30FFF7A4FF40B14FF0804300221C
:1080D000C3F80C21C3F81021C3F83825FFF7B3FF0C
:1080E00020B14FF080430322C3F8A025FFF7ABFF78
:1080F00060B16F4B0522C3F810260122C3F8882611
:108100000022C3F818263F22C3F814264FF070430C
:1081100093F8E02F062A50D1D3F8E42F11074CD161
:10812000D3F8E83F03F0F003502B46D14FF08052D4
:10813000604BD2F80414C3F82015D2F80814C3F821
:108140002415D2F80C14C3F82815D2F81014C3F86B
:108150002C15D2F81414C3F83015D2F81814C3F83B
:108160003415D2F81C14C3F84015D2F82014C3F803
:108170004415D2F82414C3F84815D2F82814C3F8CB
:108180004C15D2F82C14C3F85015D2F83014C3F89B
:108190005415D2F83414C3F86015D2F83814C3F863
:1081A0006415D2F83C14C3F86815D2F84014C3F82B
:1081B0006C15D2F84424C3F87025FFF729FF48B1A5
:1081C0004FF080534FF08042D3F8583203F04F0302
:1081D000C2F8E43EFFF71CFF48B14FF08043D3F8EC
:1081E0000024D20744BF6FF00102C3F800244FF00F
:1081F0008053D3F83021062A0AD1D3F83431062B24
:1082000001BF2D4AD2F83C3743F48063C2F83C37B3
:10821000264AD2F8883043F47003C2F88830BFF39E
:108220004F8FBFF36F8F4FF01023D3F80022002A37
:1082300003DBD3F80432002B2EDA204B0122C3F8E3
:108240000425D3F80024002AFBD04FF0102215217A
:10825000C2F80012D3F80024002AFBD04FF01023FC
:108260001522C3F80422154BD3F80024002AFBD0B2
:108270000022C3F80425D3F80024002AFBD0BFF362
:108280004F8F0A490E4BCA6802F4E0621343CB6079
:10829000BFF34F8F00BFFDE70A4B0B4A1A6008BDC2
:1082A0000030014000C007400DF0ADBA00ED00E025
:1082B0000050004000C000400010004000E00140BD
:1082C0000400FA05002300200090D003044B1A5C40
:1082D000012393404FF0A042C2F80C35704700BF15
:1082E0005CB40200044B1A5C012393404FF0A0429F
:1082F000C2F80835704700BF5CB4020008B5002022
:10830000FFF7F0FF0120FFF7EDFF0220FFF7EAFF84
:10831000BDE808400320FFF7E5BFC20708B50146E6
:108320000CD54FF0A0430322C3F84427C3F84827D5
:10833000C3F84C27C3F85027FFF7E0FF8B070AD597
:108340004FF0A0430C22C3F83427C3F83827C3F8F2
:108350003C27C3F8402708BD38B5074C051E04F17B
:10836000080318BF1C4623682BB11A6822605B689B
:1083700028469847F7E738BD1C2A002020B9054B4E
:1083800001225A70FFF7E8BF012802D1014A90701C
:10839000F8E77047142A002020B9034B01225A70D5
:1083A000FFF7DABF704700BF142A002038B50B4C26
:1083B000237883B90A486360A3602361E36000F017
:1083C00059F8054602F0F6F908B900F05FF8012304
:1083D0002370284638BD8525FBE700BF142A0020FE
:1083E0007D83020037B50B4C00230DF107008DF89B
:1083F0000730FFF723F8E368013BE360E56815B950
:1084000000F056F8A5709DF80700FFF73BF803B0A1
:1084100030BD00BF142A0020012813B508D003285E
:108420001CD018B9114B0122C3F8802002B010BD36
:108430000F4C00230DF107008DF80730FEF7FEFF0B
:1084400023780BB9FFF7B2FFE3689DF8070001330B
:10845000E3600123A370FFF715F8E7E700F016F8D3
:1084600002B0BDE81040FFF7BDBF00BF00E100E073
:10847000142A0020044A137923B901211060918045
:108480001846704785207047282A0020074B1A6835
:10849000D2075FBFC02283F8002301221A604FF089
:1084A00080430122C3F81825704700BF00E100E0B7
:1084B0004FF080430122DA60D3F81824D203FBD4B2
:1084C000704700004FF0804307B5D3F800217AB120
:1084D0000022C3F80021D3F800210092009A012263
:1084E000C3F808230F4B587910B95A711B68984785
:1084F0004FF08043D3F8042182B10022C3F8042155
:10850000D3F804210192019A0222C3F80823054BF3
:108510001B68012003B05DF804EB184703B05DF859
:1085200004FB00BF282A002000F1804000F5C04075
:10853000002382B0036003680193019B02B070477F
:10854000800000F1A040D0F8002722F44032C0F8AB
:108550000027D0F8003743EA0141C0F80017704700
:10856000C208012300F0070003FA00F08B5C1843F7
:1085700088547047054B4FF0FF32072843F82020FE
:1085800084BFC01880F84820704700BF302A002000
:1085900010B5174C94F8583043BB04F13003202138
:1085A000FF22013911F0FF0103F8012BF9D1C8B204
:1085B0000131FFF7DFFF0C29F9D104220D4800211A
:1085C00002F0ECFA0C4BC02283F8062340221A601A
:1085D0004FF4BE70FFF7A8FF084B4FF00042C3F8FE
:1085E0000423012384F85830002010BD0820FCE744
:1085F000302A0020842A002000E100E000600040D2
:10860000034B93F85800003818BF0120704700BF93
:10861000302A00202DE9F041DFF8E48008EB000368
:10862000054693F93030002B0F4664DA8B78C3F39C
:108630004003002B0BBF082400240C2108218C428E
:1086400002D10420BDE8F08158F8240001303DD16A
:1086500008EB050166B248F8242081F830601BB9A8
:1086600008EB040383F84850BB785A070ED4D907A7
:108670002ED5AB0003F1A043D3F8002722F002026D
:10868000C3F800271D492846FFF76AFFBB783A78F0
:1086900013F0020325D0A40004F1804404F5C04483
:1086A0002D02D4F8103523F4473323F44073C4F873
:1086B00010351204D4F8103505F4F85502F44032A0
:1086C00015431D43C4F810550020BBE70134B6E73D
:1086D0007A7805F5E0734FF0A041920041F823202D
:1086E000D0E7083E48FA86F696F8505045EA8212DE
:1086F00086F85020E8E70820A4E700BF842A00207D
:10870000302A002038B5204C251895F93020072A4A
:1087100018DD083A44FA82F494F850309B09032B90
:108720000BD14FF0A043D3F81015C14001F0010167
:108730000231BDE83840FFF703BF012B0CBF022117
:108740000321F6E7D3B2072B1DD8930003F1804332
:1087500003F5C043D3F8100540F00100C3F810053D
:1087600002F1400040B2800080B2FFF7DDFE51B15F
:1087700095F9303054F823302BB1012303FA02F27B
:10878000024BC3F8042338BD302A002000600040AB
:108790000E4B034493F93020072A02DD0021FFF736
:1087A000CFBED3B2072B10D8930003F1804303F55B
:1087B000C043D3F8101521F00101C3F810150123AF
:1087C00003FA02F2024BC3F808237047302A002054
:1087D000006000404FF0A043D3F8103523FA00F0BA
:1087E00000F00100704700002DE9F04F87B0002431
:1087F000584D03944FF48072012102F1804303F538
:10880000C04390B21B68012B06D1D5F804330B424C
:1088100002D0FFF789FE0C430432B2F5907F4FEA95
:108820004101EAD14B4BD3F87C31012B0AD14FF4F3
:10883000BE70FFF779FE4FF0A04344F00044D3F838
:1088400010350393E3B2D3B1434F002501263442E0
:1088500010D0AB0003F1804303F5C043D3F81005FB
:10886000D3F8101557F8253023B1C1F30141C0F3F7
:10887000042098470135082D4FEA4606E7D1002C21
:1088800061DA00224FF0FF33CDE90423DFF8C8801E
:10889000DFF8C89000273E464FF0A04B19F9014B76
:1088A000631C45D0C4F3C2030122E5B204F03F00CB
:1088B00004F0070402FA04F406AA134413F8042C83
:1088C000224235D008EB0002AD0992F9302058F869
:1088D00022A0BAF1000F09D1032D29D104A90193D7
:1088E0000090FFF73DFEDDE9000301E0032DF5D028
:1088F00000F5E07113F80C3C5BF821102342C1F342
:10890000014105D0022913D1032D0CD1294604E0E1
:1089100003290DD1032D06D1022100900136FFF766
:108920000FFE0098F6B2BAF1000F01D02946D047E9
:108930000137042FB2D136B14FF0A043039AD3F8D8
:108940001035934202D107B0BDE8F08F0393049B2A
:1089500005939DE700600040302A0020802A002017
:10896000014B1B68184700BF8C2A002000F1804093
:1089700000F5E040002382B0036003680193019B8F
:1089800002B07047F0B5524B524CD3F8043185B069
:10899000002B3DD094F82E204FF48270FFF7E6FFB5
:1089A0002AB394F82F3013BB494AD2F80031002B78
:1089B00032D04FF48070FFF7D9FF638B94F82D000D
:1089C000834250D921891B1A9BB289B26383CB1A87
:1089D000616801EB4303C2F82C36C2F830064FF44D
:1089E0008270FFF7C3FF3A4B01225A6014E06368BC
:1089F00002932389ADF80C30E36800218DF8041050
:108A000033BB2374236801A89847002384F82F30D0
:108A100094F82E30002BC7D12D4BD3F810315BB119
:108A20004FF48870FFF7A2FF0023237402238DF810
:108A3000043001A823689847254BD3F81431EBB1D3
:108A40004FF48A70FFF792FF0023237405B0F0BD46
:108A5000208B608363602081E160002AD2D11C4BAF
:108A600001221A60CEE7BAD1E368012184F82F1001
:108A700013B100216183AEE76383B0E766694FF00D
:108A800000470125002EE1D0B6FA86F227FA02F35C
:108A90004632920026EA030602F1804303F5E043E2
:108AA0001B68002BEED01046A2F58C72FFF75EFF1C
:108AB000D30882F00402C2F380028DF808308DF8EA
:108AC000045023688DF8092001A89847DAE700BF11
:108AD00000700040942A002038B51E4B044693F8DD
:108AE0002C00A8BB1C4A19602178C2F8F0156178E7
:108AF000C2F8F415E5781874012183F82D00586147
:108B000083F82F0083F82E5083F82C106FF0004369
:108B1000C2F808334FF48270FFF728FF4FF48070DB
:108B2000FFF724FF4FF48A70FFF720FFA3780B486C
:108B30005B01DBB280F80733802303600223C2F8B5
:108B400004330DB1C2F80413C2F80015002038BD7B
:108B50000820FCE7942A00200070004000E100E0BB
:108B600070B52A4B1A7C02F0FF05002A4BD10A7916
:108B7000012A9CBF264CC4F8005500F10C0503EBFC
:108B80004504247924B993F82D40013483F82D400D
:108B900003EB4503CC790D7A8E781C715D714B78AF
:108BA00036021B0106F4E06603F0300333430E780F
:108BB00006F003063343CE78360306F4805633437B
:108BC000160406F4E02633434E798979360506F417
:108BD00080160906334301F080710B430C4901EB09
:108BE0000016000100F1804000F5E040012AC6F8BF
:108BF0001835C0F81455C0F8104502D80123C1F843
:108C00000035002000E0112070BD00BF942A002034
:108C10000070004070B5264A264B05461220C2F867
:108C200008031C7C022C03D1C2F80403112070BD80
:108C3000187C01281CD1D86818B10223C2F804336B
:108C4000F4E7DD60198393F82E305BB9D2F8003178
:108C5000002BFBD04FF48070FFF788FEC2F82C5633
:108C6000C2F83016124B0222C3F804230020DEE7BC
:108C7000022093F82E40C2F80403012600201E743F
:108C80005D601981D8603CB1598393F82D30C2F8EA
:108C90002C56C2F83036CAE7C2F82C564FF4807012
:108CA000C2F83016FFF762FE16602046BFE700BF2D
:108CB00000700040942A0020074B197C0129CAB299
:108CC00008D193F82E00054B10B11A6000207047B0
:108CD0005A60704708207047942A002000700040B6
:108CE000F0B51B4F8BB207EB001443EA0243C4F804
:108CF0001C35184B40005C6900F1010C4FF0004638
:108D000011F5006F26FA0CF64FF0800505FA00F514
:108D10000BBFB44334435C615C610CBFC7F80853BC
:108D2000C7F8045340244FF000455969844025FAA0
:108D300000F040F2FF75AA42054A0BBF8143014390
:108D4000596159610CBFC2F80843C2F80443F0BD31
:108D500000700040942A002010B5124B1A7CF2B922
:108D600000F10C0103EB4102127922B193F82D209E
:108D7000013A83F82D2003EB410300249C8003017A
:108D800003F1804303F5E0430749C3F8144540F27B
:108D9000FF72C3F81045FFF7A3FF204610BD112056
:108DA000FCE700BF942A002000F8FFFF38B5124B03
:108DB0006FF00042C3F80823104A8021C2F88010E7
:108DC00001229A6042F21072D3F8141109B9013AE3
:108DD000FAD10B4D0024C3F800452C7405EB440375
:108DE0001B7F13B1E0B2FFF7B7FF0134082CF5D1B8
:108DF000002385F82C3038BD0070004000E100E011
:108E0000942A002072DF704773DF704776DF704767
:108E10007ADF70477CDF70477FDF70478FDF7047F6
:108E2000B1DF70470648074B0749C01AFDEEE07AEC
:108E3000C008000417EE902A40F00300FDF7F0BDD3
:108E40003CAD02000CAD020088B40200FEF70EB982
:108E500008B500F0CBFBBDE80840034800224FF402
:108E6000A031FEF7FEB900BF302B00200388212B74
:108E700013B5044659D007D8112B32D0132B4CD040
:108E8000102B0CD002B010BD522B5CD0562B01D051
:108E90003B2BF7D1A0881321FFF7B8FF1AE02E4B28
:108EA0002E482F49C01AC008000440F00300FDF707
:108EB000B3FD0120FFF70AFA0020FFF713FA294B50
:108EC000A1882948198001F0E5FA08B1FEF7CEF82B
:108ED000FEF78AF80028D5D002B0BDE81040FEF7B2
:108EE000C5B81D4B1D482149C01AC008000440F0F8
:108EF0000300FDF791FD0120FFF7F4F9194B4FF640
:108F0000FF721A80FEF786F808B1FEF7AFF8184B2B
:108F100001211878FFF778FFDCE7124800231A4692
:108F200085210088FFF778FFD4E7002380888DF83B
:108F3000043001A98DF80530FFF770FF0028A1D09B
:108F4000FEF794F89EE7074800231A461946008862
:108F5000FFF766FFBEE700BF0CAD02003CAD0200AC
:108F6000A0B402001E230020502B0020AAB402004F
:108F70001C23002008B503784BB9054B3B2118880A
:108F8000FFF744FF18B1BDE80840FEF76FB808BD11
:108F90001E2300200D2807B51BD1124B124801914A
:108FA000C01AC0080004114940F00300FDF734FD69
:108FB0000F4B019A0F49188801F054FB30F008025A
:108FC0000CD043F20202904208D043F20142904298
:108FD00004D003B05DF804EBFEF748B803B05DF8C9
:108FE00004FB00BF0CAD02003CAD0200B7B40200B0
:108FF0001E230020182B002010B50A4B0A4CE41A3F
:10900000E408240444F0030402203AB1FFF75EF9B7
:1090100006492046BDE81040FDF7FEBCFFF762F9A7
:109020000349F6E70CAD02003CAD0200D1B40200EA
:10903000E2B40200FEF71AB800B54FF48041A7B0C1
:109040000020FDF72DFB08B1FEF710F8FDF75CFAE4
:109050000120FFF762F9FEF7C7F808B1FEF706F83E
:10906000764A77480021FEF7F1F808B1FDF7FEFFD8
:10907000744840F233320121FDF75EFF08B1FDF77D
:10908000F5FFFEF719FF08B1FDF7F0FF01F054FB03
:1090900008B1FDF7EBFF002317A90120179301F09A
:1090A000D7FB08B1FDF7E2FF17A801F083FC08B178
:1090B000FDF7DCFF112364488DF8203001F0C3FD7B
:1090C000614982B208A8FFF7A5FE08B1FDF7CEFFFF
:1090D0000822002117A801F061FD5023ADF85C3093
:1090E000A023ADF85E300023ADF8603017A84FF430
:1090F000C873ADF86230FFF78BFE08B1FDF7B6FF1D
:109100005248002101F0B4F808B1FDF7AFFF002389
:1091100008934F484F4B179317A901F0A9F908B1CD
:10912000FDF7A4FF4C4B4D48089308A901F02CFA19
:1091300008B1FDF79BFF41F22353ADF80430474BD4
:10914000474C9B7C8DF806303C22002108A801F09A
:1091500025FD02238DF820303C2240F201630021DE
:1091600017A8ADF8223001F019FD22460123ADF811
:109170006C3052F8041B01AB08A81C9300F0C2FB32
:1091800008B1FDF773FF374AA16817A800F0BAFBD2
:1091900008B1FDF76BFF1822002102A801F0FEFCC8
:1091A00000230122ADF8143003934FF480738DF83F
:1091B0000820ADF81C302A492B48402302AA04930A
:1091C000FFF720FE08B1FDF751FF1C22002117A870
:1091D00001F0E4FC00234FF4A022CDE91732ADF8F2
:1091E0006A304FF4A0328DF86C30204B19921C93EA
:1091F00003221F4B8DF8682017A81D9300F04CFE2A
:1092000008B1FDF733FF1B4B1B481C49C01AC008AF
:10921000000440F00300FDF7FFFB194800224FF463
:10922000A031FEF71EF8174800F0C2F9FDF792FAD8
:109230000028FBD1FEF756FEF8E700BF518E020072
:109240001CB5020004230020F4B40200042B00200B
:10925000502B00204D8E0200F98F0200182B0020A9
:109260000C230020182300201C230020758F0200EF
:10927000359002000CAD02003CAD020002B50200C8
:10928000302B0020258E0200044B4FF0FF32C3E943
:1092900000229A60024B00221A6070472C230020A3
:1092A0006C2B002030B589B000284ED13B4B3C4898
:1092B0003C4C3D49C01AC008000440F00300FDF7D3
:1092C000ABFB20680190022338498DF8043001A8D7
:1092D000FFF702FC08B1FDF7C9FE354A6068516826
:1092E000127A02AB03C302A91A70002002238DF880
:1092F0000A30FFF735FC08B1FDF7B8FE2D4AD4F867
:109300000D005168127A05AB03C305A91A7001203C
:1093100002238DF81630FFF723FC08B1FDF7A6FEF7
:1093200025480221FFF776FC08B1FDF79FFE234890
:109330000221FFF76FFC08B1FDF798FE204B0022D9
:109340001A60FFF7B9FC09B030BD01281CD1134BDE
:1093500013481C4D1C4C1D492268C01AC00800044B
:109360002B6840F00300FDF764FBD5ED000A94ED97
:10937000000A174BF8EEE00A1B68B8EEC00A00209E
:1093800009B0BDE8304018470228DCD1104BFFEE91
:10939000000A1B68B0EE600A0120F1E70CAD020084
:1093A0003CAD0200DBB5020020B50200D5930200FF
:1093B000DFB50200E8B50200742B0020782B0020F6
:1093C000682B00205C2B0020602B00202EB50200B3
:1093D000642B0020F0B5037887B00546002B40F0E1
:1093E000C38040680221FFF715FC08B1FDF73EFE7F
:1093F0005E4B5F4C5F4FE41A2B89E4082404012B79
:1094000044F003041CD8FFF7D1FC5B4B5B490225F9
:10941000C3F808535A4B8022C3F880214FF0A04371
:109420000822C3F80825204600233B60FDF7F4FA24
:1094300054482A46102107B0BDE8F040FDF711BF9F
:109440006A68514EB2F90030B2F902103A684FF42E
:109450007A754FF4166013FB05F513FB00F3002B30
:10946000B8BF03F6FF73022A4FEA233395FBF1F5E9
:1094700017DC4FF4166011FB00F10029B8BF01F6AC
:10948000FF7146F82250091301323A6020460091DC
:1094900001953E49FDF7D7FA07B0BDE8F040FFF768
:1094A0000BBC0593FFF782FC334A059BDFF8E8C04D
:1094B0000221C2F80813324A8021C2F880114FF00D
:1094C000A0420821C2F8081500223A60D6E900211E
:1094D0002F4F0A44B1682F4E0A44032192FBF1F248
:1094E000396832600229DCBF2B4840F82120013165
:1094F000032091FBF0F000EB4000091A39600021D5
:1095000008460F465CF804EB0137BEF1FF3F1CBF75
:1095100070440131032FF5D109B190FBF1F21F4FD7
:1095200018483A60102101220593FDF79AFE386829
:1095300000F06CF8DFED1A7A1A4920EE270A20466F
:10954000FDEEC07A17EE902AFDF76AFA1649059BE0
:109550000A68501C08603968029131682046CDE9DC
:1095600000511249FDF77DFA07B0F0BD0CAD0200C5
:109570003CAD0200682B00200070004050B5020096
:1095800000E100E0802B0020202300205BB50200DA
:109590006C2B0020602B00202C2300205C2B002053
:1095A0000000C8428EB50200702B0020ABB502004F
:1095B00010B50B4A044600210A48FDF747FE08B1E2
:1095C000FDF754FD4FF0A0430322C3F80C270822F7
:1095D000C3F80825FFF758FE034B1C6010BD00BF01
:1095E000A5920200F4B50200642B002008B54FF0EC
:1095F000A0430822C3F80C25A42100220248FDF74D
:1096000030FE002008BD00BF802B002070B5642311
:10961000254C584379220025A918491004EBC103B1
:109620005B68834206D134F8313000EE103AB8EE70
:10963000400A70BD32D94D1C04EBC5067668B042B5
:109640002FD99B1B801B07EE103A07EE900AF8EE0D
:10965000476AF8EE677A34F8313087EEA67A00EE82
:10966000103AB8EEC00ADFED117A37EE000A30EE9C
:10967000670ADEE704EBC2014968884211D2C01ACA
:10968000CB1A07EE103A07EE900AF8EE476AF8EEAA
:10969000677A34F8323087EEA67AE0E701F1FF32DC
:1096A000E8D39542B8DBC4E7F8B5020000002042D9
:1096B0000369C26893429CBF80681B18013B981ADB
:1096C00070472DE9F843D0E902940546A9EB040858
:1096D0004068904520440F46144404D901F035FAFF
:1096E000EC60BDE8F8834246A4EB090401F02DFAD2
:1096F0006868224607EB0801F0E72DE9F843C568E2
:109700000646894617464FF000083469B36870680A
:10971000A54228BFE418013C621B5C1BBC4228BF69
:109720003C46944228BF144649462844224601F04C
:109730000CFAB3682544AB4208BF00253F1BA04488
:10974000A144F560E1D14046BDE8F88310B5114C65
:10975000114AA2610223C4E90433104BE361A264FD
:109760004FF400730E4A0F492362E2640023102273
:10977000E01DA3626362E362A3656365E36522653E
:1097800001F03FFA0849204601F03BFA2023A3717B
:1097900010BD00BFA02B0020C0B90200282C002063
:1097A000182C0020C9B90200CDB9020070B5164BC3
:1097B000182400FB04451D4404FB00331646DC6AF4
:1097C000012C0ED0022C18D0E4B92846FFF770FF08
:1097D000864204D832462846FFF773FF34462046B7
:1097E00070BD2846FFF764FF8642344628BF044612
:1097F00022462846FFF765FFF1E72846BDE870409E
:10980000FFF77BBF0024EAE7A02B0020FFF79EBFF5
:109810006DDF704779DF70477DDF704764DF704729
:109820002DE9F04F85B000250E9CBDF83CB0B4F892
:1098300000A00191074690461E46A9463A884A452F
:109840000DDC45B12388013BA3EB0A039BB2FF2B40
:109850003AD806F80A30002005B0BDE8F08F7A68E3
:1098600052F82900039000220DF10B0103A8FFF725
:10987000D5FF0028F0D19DF80B20424521D1228848
:10988000002D14BF0020022002EB080101445945BD
:109890001ADC3DB9013292B2019B2280B354228876
:1098A0000132228022880DF10B01324403A8FFF718
:1098B000B5FF0028D0D121889DF80B200A442280D2
:1098C000012509F10109B9E70C20C5E72DE9F341AC
:1098D000089FBDF824801546CDE900780222044691
:1098E0001E46FFF79DFF50B93346102229462046F9
:1098F000CDE9087802B0BDE8F041FFF791BF02B0B2
:10990000BDE8F0812DE9F04F00231788138090F80F
:109910002D3085B006460D46144653B3082F01D8A6
:109920000C2027E102A8FFF773FF002840F02281F6
:1099300023880822EA54238801339BB21B22238008
:10994000EA542088013080B2208006220DF10901FE
:10995000284401F0FAF823889DF8082006339BB2CA
:1099600012F0FE0218BF01222380EA54238801333B
:109970002380B378FBB123880433BB42D0D802A83C
:10998000FFF748FF002840F0F58023880322EA54BF
:10999000238801339BB219222380EA542388BDF81F
:1099A000082001339BB2E9182380EA54120A4A7056
:1099B000238802332380F2789AB12388D91CB942D4
:1099C000AED80221E954238801339BB201212380C0
:1099D000E95423880B449BB22380EA5423880B4428
:1099E00023807268AAB12388D91CB94298D8022171
:1099F00092F90020E954238801339BB20A21238085
:109A0000E954238801339BB22380EA54238801332D
:109A100023803389002B40F0A180338A5BB1CDE9EC
:109A200000472B460722032106F11000FFF74EFFE7
:109A3000002840F09F80338B5BB1CDE900472B4677
:109A40001522142106F11800FFF740FF002840F00E
:109A50009180326A002A40F09080D6F82480B8F1D4
:109A6000000F30D0B8F804302188981C8A1C0244BA
:109A7000BA423FF655AFFE283FF652AF03336B5460
:109A8000238801339BB2FF222380EA5423880133C9
:109A90009BB22380B8F80020EA54E918120A4A70F1
:109AA0002088023080B22080B8F804205AB1D8F85B
:109AB000081000296BD0284401F047F82388B8F833
:109AC00004201344238096F82C30002B40F098801B
:109AD000307800284ED03388012B58D0228802F1EC
:109AE000020CBC453FF61CAF012805D17378023348
:109AF00013449F42FFF414AF023FBF1ABFB202A942
:109B000005EB0C00ADF80870FFF786FE90BB3178CE
:109B1000BDF80830022900F0B98072789A4202D369
:109B20009F4280F0B180012940F0B280974293B209
:109B3000C0F0AE80ADF808300821BDF80830FE2B2B
:109B40003FF6EEAE22880133AB542288013292B246
:109B50002280A9542288134423800BE0CDE90047DA
:109B60002B460622022106F10800FFF7AFFE00286F
:109B70003FF453AF05B0BDE8F08FB4F800C00CF16E
:109B80000603BB423FF6CCAE1188052901D8072059
:109B9000F0E76FF4486E01EB0E039BB24FF27D3E8F
:109BA0007345F4D95388052BF1D96FF44860181820
:109BB00080B27045EBD94FF6FF70814201D09942D7
:109BC000E5D8052305F80C30238801339BB2122118
:109BD0002380E954238801339BB223801188E95400
:109BE000E818090A4170238802339BB22380528807
:109BF000EA54E918120A4A702388023323802CE7BA
:109C0000B36A002BC3D04FF000084FF00C0A4FF09E
:109C1000160BB16A5FFA88F20AFB02F201EB020945
:109C2000B9F80430981CFE283FF67AAE208803333A
:109C30002B54238801339BB2238005F803B023887B
:109C400001339BB223808A5AEA54E918120A4A70F7
:109C50002088023080B22080B9F804205AB1D9F8A7
:109C60000810002993D0284400F06FFF2388B9F82A
:109C700004201344238096F82C2008F101085FFA91
:109C800088F39A42C5D823E7092156E79F42FBD2C1
:109C9000ADF8087050E775DF704776DF70477ADF00
:109CA00070477BDF70470000034B1A8882420CBF6D
:109CB00018460020704700BF442E0020024B9B69CD
:109CC00003B11847704700BF282E002073B585B236
:109CD0002846FFF7E9FF044638B3174E027A337B74
:109CE0009A420CD200F10A012846FFF7D4FFF0B1E6
:109CF00011281AD002B0BDE87040FFF7DFBF002383
:109D00000372337C43B13B212846FFF7C6FF30F096
:109D1000080301D0FFF7D2FF736933B100228DF839
:109D20000420ADF8065001A8984702B070BD237A10
:109D300001332372F9E700BF282E002037B50B4608
:109D4000497A0F4A79B9D2E901141D7A0246002DE9
:109D500018BF21465868FDF784FA78B103B0BDE812
:109D60003040FFF7ABBF00211972536933B10122B4
:109D7000ADF806008DF8042001A8984703B030BD67
:109D8000282E00204B8802889A4212D842889A4294
:109D90000FD380888B8840F2F311884294BF021A57
:109DA000421A9A4205D80844984234BF0020012044
:109DB00070470020704700000388122B70B50146E1
:109DC00059D004D8102B1ED0112B44D070BD502B6D
:109DD000FCD12F4BC288DB899A42F7D1038A022B30
:109DE000F4D186883046FFF75FFF05460028EDD0A6
:109DF00001F1120000F045F938BB6868FDF749FA37
:109E00000028E3D009E0C37B012BDFD14FF6FF70C0
:109E1000FFF74AFF054620B90420BDE87040FFF770
:109E20004DBF1C4A8E880680002303721368C0F859
:109E30000A305368C0F80E3010310A30FFF7A2FF25
:109E4000134B6872DB89002BC0D129463046BDE830
:109E50007040FFF773BF8088FFF726FF0446002895
:109E6000B4D04068FDF715FA08B1FFF727FF4FF6A9
:109E7000FF732380AAE786883046FFF715FF054663
:109E80000028A3D008310A30FFF77CFF6872DCE7B6
:109E9000282E0020582E0020F8B5064648B3054667
:109EA0000FCD154F3C460FC495E8070084E8070026
:109EB0003068124C3C60B0B1FFF7F1FEC0B93268B7
:109EC00013682360536863600D480E4A4FF6FF73B2
:109ED00003800D4B40F8043F0021FDF7B7F900283F
:109EE00018BF032004E02046FFF7DBFE0028EBD07C
:109EF000F8BD0E20FCE700BF282E0020582E0020C1
:109F0000442E0020CD9C0200602E00200AB1FDF7F7
:109F100097BCFDF79EBC73B50191019C06466CB1E0
:109F200000252C46294601A8FDF79DFC18B106EB3B
:109F3000440301349D800135142DF3D13046346043
:109F400002B070BD2DE9F04703888488103B8CB0C7
:109F500005460A2B21D8DFE803F006402020202008
:109F6000202020654700DFF8E880D8F80830DB4380
:109F70000093D8F804106846FDF7A1FC009901A8E9
:109F8000FFF7C9FF0DF108090027019B9F4207D386
:109F9000132C12D90420FDF769F80CB0BDE8F08746
:109FA00039F802AB00260136514608EB8600FDF772
:109FB00050FC1E2EF7D10137E7E71F482146FDF779
:109FC0003FFC1E482146FDF73BFCEB7B012BE4D018
:109FD0001B482146FDF734FCDFE7174821460CB04B
:109FE000BDE8F047FDF735BC027A16483F2A4FEA34
:109FF0001215214694BF00220122FFF787FF022D90
:10A0000094BF0022012210482146FFF77FFF012D57
:10A010000E4894BF0022012221460CB0BDE8F04753
:10A02000FFF774BF037A002BB7D1427A0548C2F319
:10A03000C0022146F1E700BF882E0020842E0020B8
:10A040008C2E0020982E0020942E0020902E002090
:10A05000802E0020AADF7047002301380B700428EF
:10A0600006D8DFE800F00306080A0C0011230B7085
:10A0700070472123FBE73123F9E71223F7E7222377
:10A08000F5E7008800F001007047F0B58B7891B0DB
:10A09000012B0C4638BF01238DF80E3005460B8886
:10A0A000ADF80C30002116466846032200F076FD1C
:10A0B000607C6946FFF7D0FFA07C0DF10101FFF73E
:10A0C000CBFFE27B237B217D43EAC203227C43EA70
:10A0D00002139DF80220002922F0190203F019034F
:10A0E00014BF02210121134361F342031C2200210A
:10A0F00009A88DF8023000F051FD637B13F0300F9A
:10A1000015D002AF03220021384600F047FDE07C65
:10A110000DF10901FFF7A0FF11238DF808309DF81C
:10A120000A300E97012262F342038DF80A30637BF6
:10A130008DF824301422A37B8DF82530002104A84B
:10A1400000F02CFD03AB0493A388ADF81C30A3688A
:10A15000CDF814D01BB1E288ADF818200893A3699C
:10A16000002B31D001AF03220021384600F016FD4C
:10A17000A3691A88ADF82C205A88ADF82E205A68A9
:10A180000D97187B0A923946FFF766FFA3690DF118
:10A190000501587BFFF760FFA3699A7A197A41EAB3
:10A1A000C201DA7A9B7B41EA02119DF80620002B5E
:10A1B00001F0190122F0190214BF022301231143F7
:10A1C00063F342018DF80610E36903B10C93334643
:10A1D00004AA09A92846FFF73DFF11B0F0BD90DFA2
:10A1E0007047A5DF7047B5DF704700007FB50023DB
:10A1F000ADF80810ADF80A106A4602A90646ADF897
:10A200000C30ADF80E300093ADF80430FFF7E7FFE7
:10A21000054600B3114B124CE41AE408FDF7EEFEBC
:10A22000240444F0010403460E4932462046FCF75C
:10A2300000FCBDF80020BDF8023052EA030103D053
:10A2400009492046FCF7F5FBBDF804201AB107497F
:10A250002046FCF7E5FB284604B070BD0CAD0200BB
:10A260005CAD0200D4B902001EBA02005DBA020061
:10A2700078B14FF0171303601B2303711723C380BA
:10A28000038141F61B32002301614381828118461C
:10A2900070470E207047000013B5034680880C46B7
:10A2A000B8B91A88242A00F09B8014D8112A74D0D7
:10A2B000232A00F0A680102A3ED0A37A4BB1E18871
:10A2C0000020FFF78EFF002840F0A1804FF480733C
:10A2D000638102B010BD3A2A67D0552AEDD1DB88E0
:10A2E000C988A072172B38BF17238B4228BF0B4693
:10A2F0002381FFF778FF60B1FDF780FE4D4B4E499B
:10A3000002464E481B1ADB081B0443F00100FCF711
:10A3100087FBE27A002AD0D12369002BCDD040F60A
:10A320007721ADF802202289ADF80010ADF80420A5
:10A33000694620469847C0E7DB7B0A790A73012B00
:10A3400013D0022B14D0E18823898B4205D2002040
:10A35000FFF747FF70B90123E372217B637B8B42D8
:10A36000ABD20020FFF742FFA7E70B88E380EAE7C4
:10A370004B88FBE7112802D10123A372EDE7FDF71B
:10A380003DFE2C4B2E4902462C481B1ADB081B04B1
:10A3900043F00100FCF744FBDFE71723CB800B8180
:10A3A00041F61B3348818B8187E75B89CA889342DA
:10A3B00028BF1346172B0A6938BF17230B8162B1D8
:10A3C000C97A51B140F67721ADF80010ADF802001E
:10A3D000ADF80430694620469047002363816CE75E
:10A3E0001A7A0B694A73002B3FF467AF4DF67A2156
:10A3F0008DF80500ADF80010ADF802008DF80420CE
:10A4000096E7197A237B994228BF1946AAE71128B3
:10A410003FF45FAFFDF7F2FD064B094902460748DE
:10A420001B1ADB081B0443F0010002B0BDE810401A
:10A43000FCF7F6BA5CAD0200E4BA02000CAD020013
:10A44000B3BA0200B0DF704766DF704710B5002175
:10A4500004464088FFF7F8FF034608B9237210BD91
:10A46000112801D10123F9E76368BDE810401847BE
:10A4700060B159B10378DE2B0AD00B684360DE234C
:10A4800003704FF6FF734380002070470E20704723
:10A490000820704728B10378DE2B04D141800020CA
:10A4A00070470E20704708207047F0B5054685B00C
:10A4B0000C46002942D0002840D00B78DE2B3DD13D
:10A4C00082884B889A4204D10B7A13B10846FFF771
:10A4D000BDFF2B88112B33D0512B0FD0012B2DD149
:10A4E0002B7A012B2AD1A9886288914226D1204655
:10A4F000237205B0BDE8F040FFF7A8BFAE886388BF
:10A50000B3421BD1AF79022F18D1AD7B2B1F022B89
:10A5100014D800211022684600F040FB052D18BF1A
:10A520004FF4C0736946304618BFADF804308DF85B
:10A530000070FFF787FF08B16368984705B0F0BD6A
:10A540006388AA889A4204BF4FF6FF736380F5E7D9
:10A55000A8DF7047AEDF704762DF70470288502A7D
:10A5600010B40DD1C4884A88944209D1028A012AC4
:10A5700006D14B6923B1827C5DF8044B8088184773
:10A580005DF8044B70470000F0B50B6843618FB075
:10A59000334B02AA044603F110071646186859689F
:10A5A000154603C50833BB422A46F7D104F1120110
:10A5B0003046FFF7D1FF00284FD1A37C8DF806303D
:10A5C000224641F2235301A90120ADF80430FFF7E0
:10A5D000BFFF002841D10146202206A800F0DEFA84
:10A5E00041F22453ADF81830A37C8DF81A309DF851
:10A5F0002530224623F0120301254FF0011643F0C7
:10A60000120332F80A0B079606A98DF825308DF84B
:10A6100029508DF82B50FFF738FDF0B90146202264
:10A6200006A800F0BBFA41F22553ADF81830A37C20
:10A630008DF81A309DF825300796224623F00A033C
:10A6400043F00A0332F8020B8DF8253006A98DF885
:10A6500029508DF82A50FFF718FD0FB0F0BD00BF4C
:10A6600020BB020070B588B00D468DF8072010227F
:10A67000044601260DEB02000021ADF80E6000F04B
:10A680008DFA6B89ADF810300DF10703079304A91B
:10A690000DF10E0320468DF812600693FFF75AFF66
:10A6A00008B070BD10DF704713B50446094968460D
:10A6B000FDF749FC019808B902B010BDD0E90021AE
:10A6C0002046904718B16846FDF747FCF2E7112095
:10A6D000F2E700BF3CBB020013B5044607496846D9
:10A6E000FDF731FC019B0BB902B010BD2046D3E948
:10A6F000002190476846FDF730FCF3E754BB0200A9
:10A700000B4991F816335A09EC231341DB0706D5A0
:10A71000084B9A683AB94FF480030B60704742F2D5
:10A720000200FCF7A3BC1A6842F480021A6070476A
:10A7300000E100E0EC290020F7B5194F3C7864BB3C
:10A74000184E012520463570FFF7AEFF112821D0A5
:10A750002046FFF7C1FF144B8DF8034018680190A5
:10A760000DF10300FCF76AFE104901A8FFF79AFFFC
:10A770000446B0FA80F0400938709DF80300FCF7F9
:10A7800081FE3CB90A4B34701C70FFF7B9FF2846B4
:10A79000FFF7A2FF204603B0F0BD0824FAE700BF90
:10A7A000FD2E0020FC2E002038BB02008970020024
:10A7B000FE2E0020014B1878704700BFFD2E0020B0
:10A7C00007B508496846FDF7BEFB019B13B903B006
:10A7D0005DF804FBD3E9002090476846FDF7BDFB18
:10A7E000F3E700BF48BB0200FFF7EABF60DF704736
:10A7F00069DF704761DF704730B5134B1B7891B04C
:10A80000FBB1124D34240DF1020103A8ADF8024052
:10A81000FFF7F0FF70B9294601A8FDF794FB029BF2
:10A82000002BF0D003A8D3E90021904701A8FDF741
:10A8300094FBF4E7052804D011B0BDE83040FCF7E4
:10A8400015BC11B030BD00BFFF2E002098BD020026
:10A8500030B5054685B00C46002900F099804D4B77
:10A860000B600C22002101A800F098F901238DF85B
:10A87000063022688DF80450062301A92020ADF887
:10A880000830FFF7B5FF60B1FDF7B8FB424B434915
:10A89000024643481B1ADB081B0443F00100FCF787
:10A8A000BFF80C22002101A800F078F901238DF8EF
:10A8B00005302268002301A94020ADF80630FFF7DB
:10A8C00097FF60B1FDF79AFB334B36490246344897
:10A8D0001B1ADB081B0443F00100FCF7A1F80C2253
:10A8E000002101A800F05AF90A2322688DF80430EB
:10A8F00001A90120FFF77CFF60B1FDF77FFB264B2C
:10A900002949024626481B1ADB081B0443F00100B4
:10A91000FCF786F80C22002101A800F03FF94FF463
:10A92000B0632268019301A9A120FFF761FF60B124
:10A93000FDF764FB184B1D49024619481B1ADB083A
:10A940001B0443F00100FCF76BF80C22002101A866
:10A9500000F024F99DF8043022686FF3000301A988
:10A96000A0208DF80430FFF743FF034668B1FDF7E0
:10A9700045FB094B0E49024609481B1ADB081B041C
:10A9800043F00100FCF74CF80023184605B030BD39
:10A990000E23FAE7F02200206CAD020060BB02003B
:10A9A0000CAD0200A6BB0200F2BB02003EBC0200DE
:10A9B0008FBC020073B505460668FFF717FF2B68CA
:10A9C000B34204461DD91A481A4B1B491B1ADB080F
:10A9D0001B0443F002000190FCF71EF82B68174996
:10A9E00001983246FCF725F84FF080532A68D3F8D7
:10A9F0000C31134901989B0203F100539A1AFCF79A
:10AA00000FF82CB90F4B01221A70204602B070BD0E
:10AA10002046FDF7F3FA074B0B49024604481B1A80
:10AA2000DB081B0443F00100FBF7FAFFEDE700BF72
:10AA30000CAD02006CAD0200E2BC020011BD0200D0
:10AA400042BD0200FF2E00206CBD02004BDF7047AC
:10AA50001FB50E4C01A8FFF7F9FF70B9214602A8F7
:10AA6000FDF771FA039B002BF4D00198D3E9002184
:10AA7000904702A8FDF771FAF4E7052804D004B066
:10AA8000BDE81040FCF7F2BA04B010BDB0BD020042
:10AA90007F2805D8034B185C034B5B5C184070475C
:10AAA00000207047C8BD020048BE0200A0F161034B
:10AAB000192B98BF20387047A0F14103192B98BF7C
:10AAC000203070477F2805D8034B185C034B5B5C34
:10AAD0001840704700207047C8BD020048BE020001
:10AAE000A0F16103192B98BF20387047A0F14103F2
:10AAF000192B98BF203070477F299ABF0170012021
:10AB00006FF02E0070475AB10A787F2A0AD800B138
:10AB10000260002119605960501A18BF0120704767
:10AB2000002070476FF02E007047000008B5034BFF
:10AB30005B689B681B68984708BD00BF38230020EE
:10AB400008B50921FFF7F2FF08BD844640EA01037A
:10AB500013F0030F18D18446202A0BD32DE9F007F8
:10AB6000B1E8F807A0E8F807A2F12002202AF7D2FE
:10AB7000BDE8F007042A07D351F8043B40F8043B32
:10AB8000A2F10402042AF7D2002A05D011F8013BF1
:10AB900000F8013B013AF9D1604670478446002A2B
:10ABA0002DD010F0030F04D000F8011B013A26D07D
:10ABB000F7E7C9B241EA012141EA0141202A12D353
:10ABC000A2F120022DE9F0030B460C460D460E467D
:10ABD0000F4688468946A0E8FA03203AFBD2BDE832
:10ABE000F00320320BD0042A05D340F8041B043AAA
:10ABF00005D0042AF9D200F8011B013AFBD16046C6
:10AC00007047024610F0030F16D111F0030F13D155
:10AC10002DE9F0004FF001374FF0803351F8044B2D
:10AC2000A4EB070525EA04051D4002D142F8044BB8
:10AC3000F4E7A1F10401F0BC11F8013B02F8013B7B
:10AC4000002BF9D1704700F1010110F0030F11D072
:10AC500010F8012B002A23D010F0030F0AD010F8AF
:10AC6000012B002A1CD010F0030F03D010F8012B89
:10AC7000002A15D02DE970004FF001324FF08033DB
:10AC800050F8044BA4EB020525EA04051D4000D151
:10AC9000F6E7A0F1040070BC10F8012B002AFBD1EC
:06ACA000A0EB010070476B
:08ACA800998302000000000086
:10ACB000459F02000000000099A20200042B002022
:10ACC000B99D020000000000ABA40200502B002040
:10ACD0005DA50200182B00206D8E02000000000010
:08ACE0001984020000000000CD
:10ACE800F9A702000000000051AA020000000000BD
:10ACF800902300205824002060240020982300205E
:04AD0800180000002F
:10AD0C0066B40200000000006CB4020000000000F9
:10AD1C0073B402000000000082B4020000000000C6
:10AD2C0077B40200000000007CB4020000000000B8
:10AD3C00D5AD020000000303ACAE02000000000021
:10AD4C00D5AE02000000000060B40200000000005C
:10AD5C0013BB02000000030330BB0200000003031E
:10AD6C0089BD020000000303A4BD02000000030320
:10AD7C0046AF0200000000005CAF020000000000C3
:10AD8C00A8AD020000000000B4AD0200F0220020CB
:10AD9C00000000000338FDD870470000D5630200A6
:10ADAC0041640200D16302007274745F6C6F675F60
:10ADBC006261636B656E64004261636B656E6473A4
:10ADCC0020666C757368656400617070000000002B
:10ADDC00842800207F000000042900201B5B313BED
:10ADEC0033316D0025734C6F67732064726F707014
:10ADFC006564202825642925730D0A001B5B306DC2
:10AE0C00002573003C25733E2025733A2000202535
:10AE1C0030327800202020007C002563001B5B3141
:10AE2C003B33306D001B5B313B33326D001B5B31B0
:10AE3C003B33336D001B5B313B33346D001B5B319B
:10AE4C003B33356D001B5B313B33366D001B5B3187
:10AE5C003B33376D007761726E696E6700696E66A1
:10AE6C006F0064656275670008AE020029AE0200CF
:10AE7C00E8AD020031AE020039AE020041AE020074
:10AE8C0049AE020051AE020059AE020000000000B3
:10AE9C00C2AE020061AE020069AE02006EAE0200EC
:10AEAC006170705F627574746F6E000028290020E9
:10AEBC00466174616C206572726F720053797374A1
:10AECC00656D207265736574006170705F74696D77
:10AEDC0065720000010006000000000064290020DB
:10AEEC00F570020052544320696E7374616E636591
:10AEFC0020616C726561647920696E697469616C3A
:10AF0C00697A65642E005254433A20696E697469FB
:10AF1C00616C697A65642E0000000000000000007E
:10AF2C00000000000338FDD870473031323334351F
:10AF3C00363738394142434445467077725F6D6706
:10AF4C006D740000B0AC0200B0AC02000400000054
:10AF5C00736F72746C697374004E52465F53554331
:10AF6C0043455353004E52465F4552524F525F5326
:10AF7C0056435F48414E444C45525F4D49535349EB
:10AF8C004E47004E52465F4552524F525F534F460A
:10AF9C00544445564943455F4E4F545F454E4142DC
:10AFAC004C4544004E52465F4552524F525F494EFB
:10AFBC005445524E414C004E52465F4552524F52F0
:10AFCC005F4E4F5F4D454D004E52465F4552524FBE
:10AFDC00525F4E4F545F464F554E44004E52465FA3
:10AFEC004552524F525F4E4F545F535550504F5233
:10AFFC00544544004E52465F4552524F525F494EA3
:10B00C0056414C49445F504152414D004E52465FAF
:10B01C004552524F525F494E56414C49445F53542E
:10B02C00415445004E52465F4552524F525F494E75
:10B03C0056414C49445F4C454E475448004E52468D
:10B04C005F4552524F525F494E56414C49445F4600
:10B05C004C414753004E52465F4552524F525F4946
:10B06C004E56414C49445F44415441004E52465F58
:10B07C004552524F525F444154415F53495A450027
:10B08C004E52465F4552524F525F54494D454F55B3
:10B09C0054004E52465F4552524F525F4E554C4CE7
:10B0AC00004E52465F4552524F525F464F524249F4
:10B0BC004444454E004E52465F4552524F525F49F2
:10B0CC004E56414C49445F41444452004E52465FF7
:10B0DC004552524F525F42555359004E52465F45AE
:10B0EC0052524F525F434F4E4E5F434F554E54009A
:10B0FC004E52465F4552524F525F5245534F555236
:10B10C00434553004E52465F4552524F525F4D4F8E
:10B11C0044554C455F4E4F545F494E495449414C40
:10B12C00495A4544004E52465F4552524F525F4D6C
:10B13C00555445585F494E49545F4641494C454426
:10B14C00004E52465F4552524F525F4D5554455832
:10B15C005F4C4F434B5F4641494C4544004E524671
:10B16C005F4552524F525F4D555445585F554E4CAA
:10B17C004F434B5F4641494C4544004E52465F4558
:10B18C0052524F525F4D555445585F434F4E445F9A
:10B19C00494E49545F4641494C4544004E52465F26
:10B1AC004552524F525F4D4F44554C455F414C52A6
:10B1BC00454144595F494E495449414C495A4544CB
:10B1CC00004E52465F4552524F525F53544F5241BC
:10B1DC0047455F46554C4C004E52465F4552524FC8
:10B1EC00525F4150495F4E4F545F494D504C454D55
:10B1FC00454E544544004E52465F4552524F525FA5
:10B20C00464541545552455F4E4F545F454E414261
:10B21C004C4544004E52465F4552524F525F494F87
:10B22C005F50454E44494E47004E52465F45525280
:10B23C004F525F4452565F5457495F4552525F4FCD
:10B24C0056455252554E004E52465F4552524F5241
:10B25C005F4452565F5457495F4552525F414E41CD
:10B26C00434B004E52465F4552524F525F4452562A
:10B27C005F5457495F4552525F444E41434B004E19
:10B28C0052465F4552524F525F424C455F495053B4
:10B29C00505F52585F504B545F5452554E4341547B
:10B2AC004544004E52465F4552524F525F424C4508
:10B2BC005F495053505F4348414E4E454C5F414CA3
:10B2CC0052454144595F455849535453004E5246D8
:10B2DC005F4552524F525F424C455F495053505F4D
:10B2EC004C494E4B5F444953434F4E4E4543544596
:10B2FC0044004E52465F4552524F525F424C455F9E
:10B30C00495053505F504545525F52454A4543544E
:10B31C00454400556E6B6E6F776E206572726F725E
:10B32C0020636F64650000000000000065AF020040
:10B33C000100000071AF0200020000008FAF02009C
:10B34C0003000000B0AF020004000000C3AF020015
:10B35C0005000000D4AF020006000000E8AF0200B8
:10B36C000700000000B002000800000018B0020046
:10B37C000900000030B002000A00000049B00200D1
:10B38C000B00000061B002000C00000078B002005D
:10B39C000D0000008CB002000E0000009EB00200F8
:10B3AC000F000000ADB0020010000000C1B00200A0
:10B3BC0011000000D8B0020012000000E7B002003B
:10B3CC0013000000FCB002008000000010B102006D
:10B3DC008100000031B10200820000004DB102007A
:10B3EC008300000069B102008400000087B10200F4
:10B3FC0085000000A8B1020086000000CDB102005B
:10B40C0090000000E4B102009100000002B20200C2
:10B41C009200000020B202000082000035B202004F
:10B42C000182000053B20200028200006FB20200DF
:10B43C00008400008BB2020001840000AFB2020055
:10B44C0002840000D9B2020003840000FEB20200A4
:10B45C0011121314636C6F636B00434C4F434B001E
:10B46C004750494F544500505253005541525400D7
:10B47C005541525445005341414443006D61696E3E
:10B48C00206D65617375726520726573756C743AA5
:10B49C0025640900436F6E6E6563746564004469CE
:10B4AC0073636F6E6E65637465640053656E6420C0
:10B4BC00627574746F6E2073746174652063686157
:10B4CC006E67652E005265636569766564204C4530
:10B4DC0044204F4E21005265636569766564204CAB
:10B4EC004544204F464621004E6F726469635F42AB
:10B4FC006C696E6B7900426C696E6B792065786152
:10B50C006D706C6520737461727465642E0000003C
:10B51C00302B00207374617274206D6561737572C9
:10B52C0065006D65617375726520636F6D70656C18
:10B53C0074652C2073686F743A25642C20617667CF
:10B54C003A256400616463206661696C656400631C
:10B55C00757272656E74206D65617375726520729B
:10B56C006573756C743A25642C207470313A2564BB
:10B57C002C207470323A25642C20726174653A2543
:10B58C0064004D4541535552452054454D5020566D
:10B59C00414C5545202A203130303A25640A00258B
:10B5AC00642C207470313A25642C20726174653AD5
:10B5BC0025642C2073686F74526174653A25642C71
:10B5CC002066696C746572526174653A2564000179
:10B5DC000006000000000002000006000000000051
:10B5EC000200000500000000802B0020000000007D
:10B5FC00CA73010001000000C072010002000000CB
:10B60C00AA71010003000000887001000400000012
:10B61C00596F0100050000001E6E010006000000BD
:10B62C00D86C010007000000846B010008000000CA
:10B63C00236A010009000000B36801000A00000041
:10B64C00366701000B000000AB6501000C00000028
:10B65C00126401000D0000006A6201000E0000007F
:10B66C00B16001000F000000EB5E01001000000053
:10B67C00165D010011000000305B0100120000009B
:10B68C003B59010013000000365701001400000064
:10B69C002055010015000000FA52010016000000B0
:10B6AC00C4500100170000007E4E0100180000007D
:10B6BC00274C010019000000BF4901001A000000CE
:10B6CC00474701001B000000BF4401001C000000A4
:10B6DC00264201001D0000007D3F01001E000000FD
:10B6EC00C43C01001F000000FB39010020000000D9
:10B6FC0023370100210000003B3401002200000030
:10B70C0043310100230000003E2E01002400000004
:10B71C00292B01002500000006280100260000004E
:10B72C00D624010027000000982101002800000009
:10B73C004E1E010029000000F71A01002A0000002B
:10B74C00941701002B000000271401002C000000AE
:10B75C00B01001002D0000002E0D01002E00000085
:10B76C00A30901002F0000001006010030000000AA
:10B77C007502010031000000D2FE00003200000012
:10B78C002AFB0000330000007DF7000034000000AD
:10B79C00C9F300003500000012F000003600000074
:10B7AC00C8EC0000370000009BE8000038000000E7
:10B7BC00DDE40000390000001DE100003A0000004B
:10B7CC005DDD00003B0000009DD900003C00000046
:10B7DC00DDD500003D00000022D200003E0000003C
:10B7EC0067CE00003F000000B0CA0000400000001F
:10B7FC00FEC600004100000050C3000042000000E3
:10B80C00A7BF00004300000005BC0000440000007E
:10B81C006AB8000045000000D3B4000046000000E8
:10B82C0046B1000047000000C1AD00004800000018
:10B83C0045AA000049000000CFA600004A00000005
:10B84C0066A300004B000000FA9F00004C000000B3
:10B85C00B19C00004D000000659900004E000000F6
:10B86C00239600004F000000ED92000050000000F5
:10B87C00C58F000051000000A88C00005200000091
:10B88C0095890000530000009086000054000000D1
:10B89C009783000055000000A780000056000000B0
:10B8AC004C7C000057000000747900005800000028
:10B8BC002A78000059000000717500005A00000041
:10B8CC00C37200005B000000257000005C000000EB
:10B8DC008F6D00005D000000076B00005E00000033
:10B8EC00896800005F0000001B660000600000001B
:10B8FC00BE6300006100000068610000620000008F
:10B90C001F5F000063000000DF5C000064000000AB
:10B91C00B35A0000650000008A5800006600000061
:10B92C0073560000670000006654000068000000B9
:10B93C0064520000690000006F5000006A000000B3
:10B94C00864E00006B000000A54C00006C0000004F
:10B95C00D14A00006D0000000B4900006E00000091
:10B96C004E4700006F000000994500007000000079
:10B97C00EE430000710000004B420000720000001A
:10B98C00B9400000730000002B3F00007400000061
:10B99C00A63D000075000000D43A000076000000BF
:10B9AC006239000077000000FC37000078000000CE
:10B9BC00FC3700005465726D696E616C0052545412
:10B9CC00005345474745520073645F626C655F677F
:10B9DC0061705F646174615F6C656E6774685F75DC
:10B9EC00706461746528292028726571756573749B
:10B9FC0029206F6E20636F6E6E656374696F6E20A5
:10BA0C00307825782072657475726E6564202573A4
:10BA1C002E005468652072657175657374656420B9
:10BA2C0054582F5258207061636B6574206C656E8E
:10BA3C0067746820697320746F6F206C6F6E672059
:10BA4C0062792025752F2575206F63746574732EAC
:10BA5C000054686520726571756573746564206344
:10BA6C006F6D62696E6174696F6E206F66205458D9
:10BA7C0020616E64205258207061636B6574206C79
:10BA8C00656E6774687320697320746F6F206C6FB8
:10BA9C006E67206279202575206D6963726F7365FE
:10BAAC00636F6E64732E0073645F626C655F6761B5
:10BABC007474635F65786368616E67655F6D7475D8
